{
  "contractName": "owner",
  "abi": [
    {
      "constant": true,
      "inputs": [],
      "name": "owner_1",
      "outputs": [
        {
          "name": "",
          "type": "address"
        }
      ],
      "payable": false,
      "stateMutability": "view",
      "type": "function"
    },
    {
      "inputs": [],
      "payable": false,
      "stateMutability": "nonpayable",
      "type": "constructor"
    },
    {
      "constant": false,
      "inputs": [
        {
          "name": "newOwner",
          "type": "address"
        }
      ],
      "name": "transferOwnership",
      "outputs": [],
      "payable": false,
      "stateMutability": "nonpayable",
      "type": "function"
    }
  ],
  "bytecode": "0x608060405234801561001057600080fd5b50336000806101000a81548173ffffffffffffffffffffffffffffffffffffffff021916908373ffffffffffffffffffffffffffffffffffffffff16021790555061021f806100606000396000f3fe608060405234801561001057600080fd5b50600436106100365760003560e01c8063d0d124c01461003b578063f2fde38b14610085575b600080fd5b6100436100c9565b604051808273ffffffffffffffffffffffffffffffffffffffff1673ffffffffffffffffffffffffffffffffffffffff16815260200191505060405180910390f35b6100c76004803603602081101561009b57600080fd5b81019080803573ffffffffffffffffffffffffffffffffffffffff1690602001909291905050506100ee565b005b6000809054906101000a900473ffffffffffffffffffffffffffffffffffffffff1681565b6000809054906101000a900473ffffffffffffffffffffffffffffffffffffffff1673ffffffffffffffffffffffffffffffffffffffff163373ffffffffffffffffffffffffffffffffffffffff16146101b0576040517f08c379a000000000000000000000000000000000000000000000000000000000815260040180806020018281038252601c8152602001807f5468652073656e646572206973206e6f7420746865206f77656e65720000000081525060200191505060405180910390fd5b806000806101000a81548173ffffffffffffffffffffffffffffffffffffffff021916908373ffffffffffffffffffffffffffffffffffffffff1602179055505056fea165627a7a72305820d176f4c008647384205e0a8433c4ea0dd4ba920276db39e2752684f7cbea35c00029",
  "source": "pragma solidity ^0.5.0;\n\n\ncontract owner {\n    address public owner_1;\n        constructor() public {\n        owner_1 = address(msg.sender);    }\n    modifier onlyOwner {\n        require (address(msg.sender) == owner_1,\"The sender is not the owener\");\n        _;\n    }\n    function transferOwnership(address newOwner) public onlyOwner {\n         owner_1 = newOwner;\n    }\n}\ninterface tokenRecipient { function receiveApproval (address _from, uint256  _value, address _token, bytes calldata) external; }\n\ncontract TokenERC20 {\n    // Public variables of the token\n    string public name;\n    string public symbol;\n    uint8 public decimals = 18;\n    uint256 public totalSupply;\n\n    mapping (address => uint256) public balanceOf;\n    mapping (address => mapping (address => uint256)) public allowance;\n// This generates a public event on the blockchain that will notify clients\n    event Transfer(address indexed from, address indexed to, uint256 value);\n    // This generates a public event on the blockchain that will notify clients\n    event Approval(address indexed _owner, address indexed _spender, uint256 _value);\n// This notifies clients about the amount burnt\n    event Burn(address indexed from, uint256 value);\n\n    constructor(\n        uint256 initialSupply,\n        string  memory tokenName,\n        string  memory tokenSymbol\n    ) public {\n        totalSupply = initialSupply * 10 ** uint256(decimals);  // Update total supply with the decimal amount\n        balanceOf[msg.sender] = totalSupply;                // Give the creator all initial tokens\n        name = tokenName;                                   // Set the name for display purposes\n        symbol = tokenSymbol;                               // Set the symbol for display purposes\n    }\n\n    function transfer(address _from,address _to, uint256 _value) internal {\n        // Check if the sender has enough\n       // require(balanceOf[_from] >= _value);\n        require(balanceOf[_from] >= _value,\"Value greater than the sender's balance\");\n        // Check for overflows\n        require(balanceOf[_to] + _value > balanceOf[_to],\"overflow occured for the reciever\");\n        // Save this for an assertion in the future\n        uint256 previousBalances = balanceOf[_from] + balanceOf[_to];\n        // Subtract from the sender\n                //balanceOf[msg.sender] = address(_from).balance;\n        balanceOf[_from] -= _value;\n                // Add the same to the recipient\n        //balanceOf[_to] = address(_to).balance;\n        balanceOf[_to] += _value;\n        emit Transfer(_from, _to, _value);\n        // Asserts are used to use static analysis to find bugs in your code. They should never fail\n        assert(balanceOf[_from] + balanceOf[_to] == previousBalances);\n    }\n\n    function transferFrom(address _from, address _to, uint256 _value) public returns (bool success) {\n       // require(_value <= allowance[_from][msg.sender]);     // Check allowance\n       // allowance[_from][msg.sender] -= _value;\n       require(balanceOf[_from] >= _value,\"Value greater than the sender's balance\");\n       require(_value <= allowance[_from][msg.sender],\"Value is greater than allowed\");\n       balanceOf[_from] -= _value;\n       balanceOf[_to] += _value;\n       allowance[_from][msg.sender] -= _value;\n       emit Transfer(_from, _to, _value);\n        return true;\n    }\n    function approve(address _spender, uint256 _value) public\n        returns (bool success) {\n        allowance[msg.sender][_spender] = _value;\n        emit Approval(msg.sender, _spender, _value);\n        return true;\n    }\n\n    // function approveAndCall(address _spender, uint256 _value, bytes memory _extraData)\n    //     public\n    //     returns (bool success) {\n    //      tokenRecipient spender = tokenRecipient(_spender);\n    //     if (approve(_spender, _value)) {\n    //         spender.receiveApproval(msg.sender, _value, this, _extraData);\n    //         return true;\n    //     }\n    // }\n\n    function burn(uint256 _value) public returns (bool success) {\n        require(balanceOf[msg.sender] >= _value,\"Value greater than the sender's balance\");   // Check if the sender has enough\n        balanceOf[msg.sender] -= _value;            // Subtract from the sender\n        totalSupply -= _value;                      // Updates totalSupply\n        emit Burn(msg.sender, _value);\n        return true;\n    }\n\n    function burnFrom(address _from, uint256 _value) public returns (bool success) {\n        require(balanceOf[_from] >= _value,\"Value greater than the sender's balance\");                // Check if the targeted balance is enough\n        require(_value <= allowance[_from][msg.sender],\"Overflow occured for the receiver\");    // Check allowance\n        balanceOf[_from] -= _value;                         // Subtract from the targeted balance\n        allowance[_from][msg.sender] -= _value;             // Subtract from the sender's allowance\n        totalSupply -= _value;                              // Update totalSupply\n        emit Burn(_from, _value);\n        return true;\n    }\n}\n\ncontract JBK is owner, TokenERC20 {\n    uint256 public sellPrice;\n    uint256 public buyPrice;\n    // uint256 public initialSupply = 10000000000;\n     mapping (address => bool) public frozenAccount;\n/* This generates a public event on the blockchain that will notify clients */\n    event FrozenFunds(address target, bool frozen);\n/* Initializes contract with initial supply tokens to the creator of the contract */\n    constructor(\n        uint256 initialSupply,\n        string memory tokenName,\n        string memory tokenSymbol\n    ) TokenERC20(initialSupply, tokenName, tokenSymbol) public {\n    }\n    function getBalance(address addr) public view returns(uint256 balancen){\n        return balanceOf[addr];\n    }\n        /* Internal transfer, only can be called by this contract */\n    function _transfer(address _from,address  _to, uint256 _value) public {\n        require(balanceOf[_from]>=_value,\"Value greater than the sender's balance\");\n        require(balanceOf[_to] + _value>balanceOf[_to],\"Overflow occured for the reciever\");\n        balanceOf[_from] -= _value;\n        balanceOf[_to] += _value;\n        emit Transfer(_from,_to,_value);\n    }\n    function getInitialSuuply() public view returns(uint256 supply){\n        return totalSupply;\n    }\n\n    function mintToken(address target, uint256 mintedAmount) public onlyOwner{\n        balanceOf[target] += mintedAmount;\n        totalSupply += mintedAmount;\n        //emit Transfer(0, this, mintedAmount);\n        //emit Transfer(this, target, mintedAmount);\n    }\n\n    function freezeAccount(address target, bool freeze) public onlyOwner {\n        frozenAccount[target] = freeze;\n        emit FrozenFunds(target, freeze);\n    }\n    function balanceAddr(address _from)  public view returns(uint256 bal){\n        return address(_from).balance;\n    }\n    function setPrices(uint256 newSellPrice, uint256 newBuyPrice) public onlyOwner {\n        sellPrice = newSellPrice;\n        buyPrice = newBuyPrice;\n    }\n\n    // function buy() payable public {\n    //     uint amount = msg.value / buyPrice;               // calculates the amount\n    //   // _transfer(this, msg.sender, amount);              // makes the transfers\n    // }\n\n    function sell(uint256 amount) public {\n      // address myAddress = this;\n      //  require(myAddress.balance >= amount * sellPrice);      // checks if the contract has enough ether to buy\n     //   _transfer(msg.sender, this, amount);              // makes the transfers\n        msg.sender.transfer(amount * sellPrice);          // sends ether to the seller. It's important to do this last to avoid recursion attacks\n    }\n}\n",
  "sourcePath": "/home/jyothsna/ethereum/Token/contracts/JBK.sol",
  "compiler": {
    "name": "solc",
    "version": "0.5.8+commit.23d335f2.Emscripten.clang"
  },
  "schemaVersion": "3.0.16",
  "updatedAt": "2019-10-01T05:21:54.353Z",
  "devdoc": {
    "methods": {}
  },
  "userdoc": {
    "methods": {}
  }
}