{
  "contractName": "payback",
  "abi": [
    {
      "constant": true,
      "inputs": [],
      "name": "jbk",
      "outputs": [
        {
          "name": "",
          "type": "address"
        }
      ],
      "payable": false,
      "stateMutability": "view",
      "type": "function"
    },
    {
      "inputs": [
        {
          "name": "_jbkContract",
          "type": "address"
        }
      ],
      "payable": false,
      "stateMutability": "nonpayable",
      "type": "constructor"
    },
    {
      "constant": true,
      "inputs": [
        {
          "name": "addr",
          "type": "address"
        }
      ],
      "name": "getbalanceJBK",
      "outputs": [
        {
          "name": "balance",
          "type": "uint256"
        }
      ],
      "payable": false,
      "stateMutability": "view",
      "type": "function"
    },
    {
      "constant": false,
      "inputs": [
        {
          "name": "_MobileNo",
          "type": "string"
        },
        {
          "name": "_AccountID",
          "type": "address"
        },
        {
          "name": "_token",
          "type": "uint256"
        },
        {
          "name": "_tokenSymbol",
          "type": "string"
        },
        {
          "name": "_tokenValidity",
          "type": "string"
        }
      ],
      "name": "setCustomerJBK",
      "outputs": [
        {
          "name": "success",
          "type": "bool"
        }
      ],
      "payable": false,
      "stateMutability": "nonpayable",
      "type": "function"
    },
    {
      "constant": false,
      "inputs": [
        {
          "name": "_rAccountID",
          "type": "address"
        },
        {
          "name": "name",
          "type": "string"
        },
        {
          "name": "_issuedToken",
          "type": "string"
        },
        {
          "name": "_issuedTokenSupply",
          "type": "uint256"
        },
        {
          "name": "_rTokenValue",
          "type": "uint256"
        }
      ],
      "name": "setRetailCompany",
      "outputs": [
        {
          "name": "success",
          "type": "bool"
        }
      ],
      "payable": false,
      "stateMutability": "nonpayable",
      "type": "function"
    },
    {
      "constant": true,
      "inputs": [
        {
          "name": "_mobileno",
          "type": "string"
        }
      ],
      "name": "getCustTokenBal",
      "outputs": [
        {
          "name": "balance",
          "type": "uint256"
        }
      ],
      "payable": false,
      "stateMutability": "view",
      "type": "function"
    },
    {
      "constant": true,
      "inputs": [
        {
          "name": "_rAccountID",
          "type": "address"
        }
      ],
      "name": "getRetaiCompBal",
      "outputs": [
        {
          "name": "_balance",
          "type": "uint256"
        }
      ],
      "payable": false,
      "stateMutability": "view",
      "type": "function"
    },
    {
      "constant": true,
      "inputs": [],
      "name": "gettokensupply",
      "outputs": [
        {
          "name": "_token",
          "type": "uint256"
        }
      ],
      "payable": false,
      "stateMutability": "view",
      "type": "function"
    },
    {
      "constant": false,
      "inputs": [
        {
          "name": "_rAccountId",
          "type": "address"
        },
        {
          "name": "mobile_no",
          "type": "string"
        },
        {
          "name": "_value",
          "type": "uint256"
        }
      ],
      "name": "transferFromRetail2Cust",
      "outputs": [
        {
          "name": "success",
          "type": "bool"
        }
      ],
      "payable": false,
      "stateMutability": "nonpayable",
      "type": "function"
    },
    {
      "constant": false,
      "inputs": [
        {
          "name": "_senderMobileNo",
          "type": "string"
        },
        {
          "name": "_receiverMobileNo",
          "type": "string"
        },
        {
          "name": "_value",
          "type": "uint256"
        }
      ],
      "name": "transferFromCust2Cust",
      "outputs": [
        {
          "name": "success",
          "type": "bool"
        }
      ],
      "payable": false,
      "stateMutability": "nonpayable",
      "type": "function"
    },
    {
      "constant": false,
      "inputs": [
        {
          "name": "_rAccountId",
          "type": "address"
        },
        {
          "name": "mobile_no",
          "type": "string"
        },
        {
          "name": "_value",
          "type": "uint256"
        }
      ],
      "name": "transferFromCust2Retail",
      "outputs": [
        {
          "name": "success",
          "type": "bool"
        }
      ],
      "payable": false,
      "stateMutability": "nonpayable",
      "type": "function"
    },
    {
      "constant": false,
      "inputs": [
        {
          "name": "_rAccountId",
          "type": "address"
        },
        {
          "name": "_value",
          "type": "uint256"
        }
      ],
      "name": "transferFromOwnerToRetail",
      "outputs": [
        {
          "name": "success",
          "type": "bool"
        }
      ],
      "payable": false,
      "stateMutability": "nonpayable",
      "type": "function"
    },
    {
      "constant": false,
      "inputs": [
        {
          "name": "_from",
          "type": "address"
        },
        {
          "name": "_to",
          "type": "address"
        },
        {
          "name": "_value",
          "type": "uint256"
        }
      ],
      "name": "transferUsingJBK",
      "outputs": [
        {
          "name": "success",
          "type": "bool"
        }
      ],
      "payable": true,
      "stateMutability": "payable",
      "type": "function"
    }
  ],
  "bytecode": "0x608060405234801561001057600080fd5b50604051602080611a5d8339810180604052602081101561003057600080fd5b8101908080519060200190929190505050806000806101000a81548173ffffffffffffffffffffffffffffffffffffffff021916908373ffffffffffffffffffffffffffffffffffffffff160217905550506119cc806100916000396000f3fe6080604052600436106100a75760003560e01c8063a7fa216411610064578063a7fa21641461047f578063af4d907c14610589578063b7ab385f1461070a578063bbc9edfb14610814578063c303d41a1461089a578063e02c9d1f14610ad2576100a7565b80631d5f2d34146100ac578063497da4c1146101035780637462ec801461012e5780637c445625146102d95780637ea4f37c1461033e57806384111a6e146103a3575b600080fd5b3480156100b857600080fd5b506100c1610b45565b604051808273ffffffffffffffffffffffffffffffffffffffff1673ffffffffffffffffffffffffffffffffffffffff16815260200191505060405180910390f35b34801561010f57600080fd5b50610118610b6a565b6040518082815260200191505060405180910390f35b34801561013a57600080fd5b506102bf600480360360a081101561015157600080fd5b81019080803573ffffffffffffffffffffffffffffffffffffffff1690602001909291908035906020019064010000000081111561018e57600080fd5b8201836020820111156101a057600080fd5b803590602001918460018302840111640100000000831117156101c257600080fd5b91908080601f016020809104026020016040519081016040528093929190818152602001838380828437600081840152601f19601f8201169050808301925050505050505091929192908035906020019064010000000081111561022557600080fd5b82018360208201111561023757600080fd5b8035906020019184600183028401116401000000008311171561025957600080fd5b91908080601f016020809104026020016040519081016040528093929190818152602001838380828437600081840152601f19601f8201169050808301925050505050505091929192908035906020019092919080359060200190929190505050610c18565b604051808215151515815260200191505060405180910390f35b3480156102e557600080fd5b50610328600480360360208110156102fc57600080fd5b81019080803573ffffffffffffffffffffffffffffffffffffffff169060200190929190505050610cd8565b6040518082815260200191505060405180910390f35b34801561034a57600080fd5b5061038d6004803603602081101561036157600080fd5b81019080803573ffffffffffffffffffffffffffffffffffffffff169060200190929190505050610d24565b6040518082815260200191505060405180910390f35b3480156103af57600080fd5b50610469600480360360208110156103c657600080fd5b81019080803590602001906401000000008111156103e357600080fd5b8201836020820111156103f557600080fd5b8035906020019184600183028401116401000000008311171561041757600080fd5b91908080601f016020809104026020016040519081016040528093929190818152602001838380828437600081840152601f19601f820116905080830192505050505050509192919290505050610e06565b6040518082815260200191505060405180910390f35b34801561048b57600080fd5b5061056f600480360360608110156104a257600080fd5b81019080803573ffffffffffffffffffffffffffffffffffffffff169060200190929190803590602001906401000000008111156104df57600080fd5b8201836020820111156104f157600080fd5b8035906020019184600183028401116401000000008311171561051357600080fd5b91908080601f016020809104026020016040519081016040528093929190818152602001838380828437600081840152601f19601f82011690508083019250505050505050919291929080359060200190929190505050610f79565b604051808215151515815260200191505060405180910390f35b34801561059557600080fd5b506106f0600480360360608110156105ac57600080fd5b81019080803590602001906401000000008111156105c957600080fd5b8201836020820111156105db57600080fd5b803590602001918460018302840111640100000000831117156105fd57600080fd5b91908080601f016020809104026020016040519081016040528093929190818152602001838380828437600081840152601f19601f8201169050808301925050505050505091929192908035906020019064010000000081111561066057600080fd5b82018360208201111561067257600080fd5b8035906020019184600183028401116401000000008311171561069457600080fd5b91908080601f016020809104026020016040519081016040528093929190818152602001838380828437600081840152601f19601f8201169050808301925050505050505091929192908035906020019092919050505061115e565b604051808215151515815260200191505060405180910390f35b34801561071657600080fd5b506107fa6004803603606081101561072d57600080fd5b81019080803573ffffffffffffffffffffffffffffffffffffffff1690602001909291908035906020019064010000000081111561076a57600080fd5b82018360208201111561077c57600080fd5b8035906020019184600183028401116401000000008311171561079e57600080fd5b91908080601f016020809104026020016040519081016040528093929190818152602001838380828437600081840152601f19601f820116905080830192505050505050509192919290803590602001909291905050506113ff565b604051808215151515815260200191505060405180910390f35b6108806004803603606081101561082a57600080fd5b81019080803573ffffffffffffffffffffffffffffffffffffffff169060200190929190803573ffffffffffffffffffffffffffffffffffffffff169060200190929190803590602001909291905050506115e4565b604051808215151515815260200191505060405180910390f35b3480156108a657600080fd5b50610ab8600480360360a08110156108bd57600080fd5b81019080803590602001906401000000008111156108da57600080fd5b8201836020820111156108ec57600080fd5b8035906020019184600183028401116401000000008311171561090e57600080fd5b91908080601f016020809104026020016040519081016040528093929190818152602001838380828437600081840152601f19601f820116905080830192505050505050509192919290803573ffffffffffffffffffffffffffffffffffffffff169060200190929190803590602001909291908035906020019064010000000081111561099b57600080fd5b8201836020820111156109ad57600080fd5b803590602001918460018302840111640100000000831117156109cf57600080fd5b91908080601f016020809104026020016040519081016040528093929190818152602001838380828437600081840152601f19601f82011690508083019250505050505050919291929080359060200190640100000000811115610a3257600080fd5b820183602082011115610a4457600080fd5b80359060200191846001830284011164010000000083111715610a6657600080fd5b91908080601f016020809104026020016040519081016040528093929190818152602001838380828437600081840152601f19601f8201169050808301925050505050505091929192905050506116e5565b604051808215151515815260200191505060405180910390f35b348015610ade57600080fd5b50610b2b60048036036040811015610af557600080fd5b81019080803573ffffffffffffffffffffffffffffffffffffffff16906020019092919080359060200190929190505050611822565b604051808215151515815260200191505060405180910390f35b6000809054906101000a900473ffffffffffffffffffffffffffffffffffffffff1681565b6000806000809054906101000a900473ffffffffffffffffffffffffffffffffffffffff1673ffffffffffffffffffffffffffffffffffffffff166318160ddd6040518163ffffffff1660e01b815260040160206040518083038186803b158015610bd457600080fd5b505afa158015610be8573d6000803e3d6000fd5b505050506040513d6020811015610bfe57600080fd5b810190808051906020019092919050505090508091505090565b6000604051806080016040528086815260200185815260200184815260200183815250600260008873ffffffffffffffffffffffffffffffffffffffff1673ffffffffffffffffffffffffffffffffffffffff1681526020019081526020016000206000820151816000019080519060200190610c969291906118fb565b506020820151816001019080519060200190610cb39291906118fb565b5060408201518160020155606082015181600301559050506001905095945050505050565b6000600260008373ffffffffffffffffffffffffffffffffffffffff1673ffffffffffffffffffffffffffffffffffffffff168152602001908152602001600020600201549050919050565b60008060009054906101000a900473ffffffffffffffffffffffffffffffffffffffff1673ffffffffffffffffffffffffffffffffffffffff166370a08231836040518263ffffffff1660e01b8152600401808273ffffffffffffffffffffffffffffffffffffffff1673ffffffffffffffffffffffffffffffffffffffff16815260200191505060206040518083038186803b158015610dc457600080fd5b505afa158015610dd8573d6000803e3d6000fd5b505050506040513d6020811015610dee57600080fd5b81019080805190602001909291905050509050919050565b6000806001836040518082805190602001908083835b60208310610e3f5780518252602082019150602081019050602083039250610e1c565b6001836020036101000a038019825116818451168082178552505050505050905001915050908152602001604051809103902060000160009054906101000a900473ffffffffffffffffffffffffffffffffffffffff1690506000809054906101000a900473ffffffffffffffffffffffffffffffffffffffff1673ffffffffffffffffffffffffffffffffffffffff166370a08231826040518263ffffffff1660e01b8152600401808273ffffffffffffffffffffffffffffffffffffffff1673ffffffffffffffffffffffffffffffffffffffff16815260200191505060206040518083038186803b158015610f3657600080fd5b505afa158015610f4a573d6000803e3d6000fd5b505050506040513d6020811015610f6057600080fd5b8101908080519060200190929190505050915050919050565b6000806001846040518082805190602001908083835b60208310610fb25780518252602082019150602081019050602083039250610f8f565b6001836020036101000a038019825116818451168082178552505050505050905001915050908152602001604051809103902060000160009054906101000a900473ffffffffffffffffffffffffffffffffffffffff1690506110168582856115e4565b611088576040517f08c379a00000000000000000000000000000000000000000000000000000000081526004018080602001828103825260128152602001807f4661696c656420746f207472616e73666572000000000000000000000000000081525060200191505060405180910390fd5b826001856040518082805190602001908083835b602083106110bf578051825260208201915060208101905060208303925061109c565b6001836020036101000a03801982511681845116808217855250505050505090500191505090815260200160405180910390206001016000828254019250508190555082600260008773ffffffffffffffffffffffffffffffffffffffff1673ffffffffffffffffffffffffffffffffffffffff1681526020019081526020016000206002016000828254039250508190555060019150509392505050565b6000806001856040518082805190602001908083835b602083106111975780518252602082019150602081019050602083039250611174565b6001836020036101000a038019825116818451168082178552505050505050905001915050908152602001604051809103902060000160009054906101000a900473ffffffffffffffffffffffffffffffffffffffff16905060006001856040518082805190602001908083835b602083106112285780518252602082019150602081019050602083039250611205565b6001836020036101000a038019825116818451168082178552505050505050905001915050908152602001604051809103902060000160009054906101000a900473ffffffffffffffffffffffffffffffffffffffff16905061128c8282866115e4565b6112fe576040517f08c379a00000000000000000000000000000000000000000000000000000000081526004018080602001828103825260128152602001807f4661696c656420746f207472616e73666572000000000000000000000000000081525060200191505060405180910390fd5b836001876040518082805190602001908083835b602083106113355780518252602082019150602081019050602083039250611312565b6001836020036101000a038019825116818451168082178552505050505050905001915050908152602001604051809103902060010160008282540192505081905550836001866040518082805190602001908083835b602083106113af578051825260208201915060208101905060208303925061138c565b6001836020036101000a0380198251168184511680821785525050505050509050019150509081526020016040518091039020600101600082825403925050819055506001925050509392505050565b6000806001846040518082805190602001908083835b602083106114385780518252602082019150602081019050602083039250611415565b6001836020036101000a038019825116818451168082178552505050505050905001915050908152602001604051809103902060000160009054906101000a900473ffffffffffffffffffffffffffffffffffffffff16905061149c8186856115e4565b61150e576040517f08c379a00000000000000000000000000000000000000000000000000000000081526004018080602001828103825260128152602001807f4661696c656420746f207472616e73666572000000000000000000000000000081525060200191505060405180910390fd5b826001856040518082805190602001908083835b602083106115455780518252602082019150602081019050602083039250611522565b6001836020036101000a03801982511681845116808217855250505050505090500191505090815260200160405180910390206001016000828254039250508190555082600260008773ffffffffffffffffffffffffffffffffffffffff1673ffffffffffffffffffffffffffffffffffffffff1681526020019081526020016000206002016000828254019250508190555060019150509392505050565b60008060009054906101000a900473ffffffffffffffffffffffffffffffffffffffff1673ffffffffffffffffffffffffffffffffffffffff166330e0789e8585856040518463ffffffff1660e01b8152600401808473ffffffffffffffffffffffffffffffffffffffff1673ffffffffffffffffffffffffffffffffffffffff1681526020018373ffffffffffffffffffffffffffffffffffffffff1673ffffffffffffffffffffffffffffffffffffffff1681526020018281526020019350505050600060405180830381600087803b1580156116c257600080fd5b505af11580156116d6573d6000803e3d6000fd5b50505050600190509392505050565b600060405180608001604052808673ffffffffffffffffffffffffffffffffffffffff168152602001858152602001848152602001838152506001876040518082805190602001908083835b602083106117545780518252602082019150602081019050602083039250611731565b6001836020036101000a038019825116818451168082178552505050505050905001915050908152602001604051809103902060008201518160000160006101000a81548173ffffffffffffffffffffffffffffffffffffffff021916908373ffffffffffffffffffffffffffffffffffffffff1602179055506020820151816001015560408201518160020190805190602001906117f49291906118fb565b5060608201518160030190805190602001906118119291906118fb565b509050506001905095945050505050565b600061182f3384846115e4565b6118a1576040517f08c379a00000000000000000000000000000000000000000000000000000000081526004018080602001828103825260128152602001807f4661696c656420746f207472616e73666572000000000000000000000000000081525060200191505060405180910390fd5b81600260008573ffffffffffffffffffffffffffffffffffffffff1673ffffffffffffffffffffffffffffffffffffffff168152602001908152602001600020600201600082825401925050819055506001905092915050565b828054600181600116156101000203166002900490600052602060002090601f016020900481019282601f1061193c57805160ff191683800117855561196a565b8280016001018555821561196a579182015b8281111561196957825182559160200191906001019061194e565b5b509050611977919061197b565b5090565b61199d91905b80821115611999576000816000905550600101611981565b5090565b9056fea165627a7a72305820353663a499381dbe97837e25191834c2bbe3206a1e8fd139b114a5494954f2ad0029",
  "source": "pragma solidity ^0.5.0;\n\nimport \"./JBK.sol\";\n\ncontract payback{\n    JBK public jbk ;\n    struct customer{\n        // string  MobileNo;\n        address  CAccountID;\n        uint256 tokenvalue; //token balance value\n        string  Token;  //name of the token, JBK\n        string  TokenValidity;  //token valid date\n    }\n    struct RetailCompany{\n        string  Name;           //Name of the RetailCompany\n        //string  RAccountID;\n        string  IssuedToken; //Name of the token , here JBK\n        uint256 IssuedTokenSupply;\n        uint256 RTokenvalue;\n    }\n    // mapping (address => uint256) public balanceOf;\n    mapping (string => customer) Cust;\n    mapping (address => RetailCompany) retailcomp;\n    function getbalanceJBK(address addr) public view returns (uint balance){\n        // balance = balanceOf[_tokenaddr];\n        // balance = address(_tokenaddr).balance;\n        return jbk.balanceOf(addr);\n    }\n    constructor(JBK _jbkContract) public {\n        jbk = _jbkContract;\n     }\n    function setCustomerJBK(string memory _MobileNo,address  _AccountID, uint256 _token,\n                            string memory _tokenSymbol, string memory _tokenValidity)\n                            public returns (bool success) {\n        Cust[_MobileNo] = customer(_AccountID,_token,_tokenSymbol,_tokenValidity);\n        return true;\n    }\n    function setRetailCompany(address _rAccountID,string memory name,\n                            string memory _issuedToken,uint256 _issuedTokenSupply,uint256 _rTokenValue )\n                         public returns (bool success){\n        retailcomp[_rAccountID] = RetailCompany(name,_issuedToken,_issuedTokenSupply,_rTokenValue);\n        return true;\n    }\n    function getCustTokenBal(string memory _mobileno)public view returns (uint256 balance){\n        address addr = Cust[_mobileno].CAccountID;\n        return jbk.balanceOf(addr);\n    }\n    function getRetaiCompBal(address _rAccountID )public view returns (uint _balance){\n        return retailcomp[_rAccountID].IssuedTokenSupply;\n    }\n    function gettokensupply() public view returns (uint256 _token){\n        uint256 _vol = jbk.totalSupply();\n        return _vol;\n    }\n    function transferFromRetail2Cust(address _rAccountId,string memory mobile_no,uint256 _value)public returns(bool success){\n        address custAddress = Cust[mobile_no].CAccountID;\n        require(transferUsingJBK(_rAccountId,custAddress,_value),\"Failed to transfer\");\n        Cust[mobile_no].tokenvalue += _value;\n        retailcomp[_rAccountId].IssuedTokenSupply -= _value;\n        return true;\n    }\n    function transferFromCust2Cust(string memory _senderMobileNo,string memory _receiverMobileNo,uint256 _value)public returns(bool success){\n        address custAddress1 = Cust[_senderMobileNo].CAccountID;\n        address custAddress2 = Cust[_receiverMobileNo].CAccountID;\n        require(transferUsingJBK(custAddress1,custAddress2,_value),\"Failed to transfer\");\n        Cust[_senderMobileNo].tokenvalue += _value;\n        Cust[_receiverMobileNo].tokenvalue -= _value;\n        return true;\n    }\n    function transferFromCust2Retail(address _rAccountId,string memory mobile_no,uint256 _value)public returns(bool success){\n        address custAddress = Cust[mobile_no].CAccountID;\n        require(transferUsingJBK(custAddress,_rAccountId,_value),\"Failed to transfer\");\n        Cust[mobile_no].tokenvalue -= _value;\n        retailcomp[_rAccountId].IssuedTokenSupply += _value;\n        return true;\n    }\n    function transferFromOwnerToRetail(address _rAccountId,uint256 _value) public returns(bool success) {\n        require(transferUsingJBK(msg.sender,_rAccountId,_value),\"Failed to transfer\");\n        retailcomp[_rAccountId].IssuedTokenSupply += _value;\n        return true;\n    }\n    function transferUsingJBK(address _from,address _to,uint256 _value) public payable returns (bool success) {\n        jbk._transfer(_from,_to,_value);\n        return true;\n    }\n}",
  "sourcePath": "/home/jyothsna/ethereum/Token/contracts/payback.sol",
  "compiler": {
    "name": "solc",
    "version": "0.5.8+commit.23d335f2.Emscripten.clang"
  },
  "schemaVersion": "3.0.16",
  "updatedAt": "2019-10-01T08:54:08.176Z",
  "devdoc": {
    "methods": {}
  },
  "userdoc": {
    "methods": {}
  }
}